:020000040800F2
:10000000A80800200D0200081502000817020008C9
:10001000190200081B0200081D0200080000000071
:100020000000000000000000000000001F020008A7
:100030002102000800000000230200082502000839
:1000400027020008270200082702000827020008EC
:1000500027020008270200082702000827020008DC
:1000600027020008270200082702000827020008CC
:1000700027020008270200082702000827020008BC
:1000800027020008270200082702000827020008AC
:10009000270200082702000827020008270200089C
:1000A00027020008750C0008270200082702000834
:1000B000270200082702000827020008270200087C
:1000C000270200082702000827020008270200086C
:1000D000270200082702000827020008270200085C
:1000E000270200082702000827020008270200084C
:1000F000270200082702000827020008270200083C
:10010000270200082702000827020008270200082B
:10011000270200082702000827020008270200081B
:10012000270200082702000827020008270200080B
:1001300000F002F800F05AF80AA090E8000C82449F
:100140008344AAF10107DA4501D100F04FF8AFF27C
:10015000090EBAE80F0013F0010F18BFFB1A43F0A5
:10016000010318474C2000006C2000000A444FF0A7
:10017000000C10F8013B13F0070408BF10F8014B06
:100180001D1108BF10F8015B641E05D010F8016B4B
:10019000641E01F8016BF9D113F0080F1EBF10F8AF
:1001A000014BAD1C0C1B09D16D1E58BF01F801CBD2
:1001B000FAD505E014F8016B01F8016B6D1EF9D555
:1001C0009142D6D37047000000230024002500266A
:1001D000103A28BF78C1FBD8520728BF30C148BFAA
:1001E0000B6070471FB51FBD10B510BD00F031F892
:1001F0001146FFF7F7FF00F0E3FF00F04FF803B4FC
:10020000FFF7F2FF03BC00F057F8000009488047F1
:1002100009480047FEE7FEE7FEE7FEE7FEE7FEE7E8
:10022000FEE7FEE7FEE7FEE704480549054A064B00
:1002300070470000150C000831010008A8020020DA
:10024000A8080020A8040020A804002070477047D8
:100250007047754600F02CF8AE46050069465346D7
:1002600020F00700854618B020B5FFF7DDFFBDE898
:1002700020404FF000064FF000074FF000084FF00D
:10028000000B21F00701AC46ACE8C009ACE8C0099E
:10029000ACE8C009ACE8C0098D46704710B504460B
:1002A000AFF300802046BDE81040FFF7A8BF000074
:1002B000004870474802002001491820ABBEFEE705
:1002C00026000200704721B1826842F0010282607C
:1002D00003E0826822F001028260704721B18268E7
:1002E00042F48072826003E0826822F4807282604D
:1002F0007047014600208A6802F004020AB101201A
:1003000000E000207047014600208A6802F00802E1
:100310000AB1012000E000207047000030B502461D
:100320000020002350680F4C20400D790C6844EAEF
:1003300005242043506090680B4C2040D1E90254C2
:100340002C434D7944EA450420439060D06A20F460
:1003500070000C7C641EE4B2234340EA0350D06278
:1003600030BD0000FFFEF0FFFDF7F1FFF0B50446E1
:100370000D4600200021092D11DDE068A5F10A06D7
:1003800006EB4607072606FA07F18843A5F10A0699
:1003900006EB460603FA06F10843E0600CE020692C
:1003A00005EB4507072606FA07F1884305EB4506E6
:1003B00003FA06F108432061072A0FDA606B561E24
:1003C00006EB86071F2606FA07F18843561E06EB42
:1003D000860605FA06F10843606322E00D2A0FDA6B
:1003E000206BD61F06EB86071F2606FA07F1884307
:1003F000D61F06EB860605FA06F10843206310E0D7
:10040000E06AA2F10D0606EB86071F2606FA07F141
:100410008843A2F10D0606EB860605FA06F10843AD
:10042000E062F0BD816841F008018160704721B150
:10043000826842F4A002826003E0826822F4A00293
:1004400082607047816841F004018160704700005C
:1004500000B591B00121102000F058FB01214802A5
:1004600000F054FB2020ADF8400000208DF8430040
:1004700010A9354800F09EF90121084600F036FB2E
:10048000324800F0A9F8324800903248019000202C
:1004900002900120039000200490802005904000ED
:1004A0000690C000079020200890000209900020CC
:1004B0000A906946254800F035F90121234800F0EB
:1004C0007FF800200B908DF8300001208DF831006E
:1004D0004FF460200D9000200E9001208DF83C001C
:1004E0000BA91B484C38FFF719FF052301220F21E8
:1004F00017484C38FFF73AFF012115484C38FFF7F1
:10050000E2FE13484C38FFF78DFF00BF10484C380F
:10051000FFF7F9FE0028F9D10D484C38FFF792FF9C
:1005200000BF0B484C38FFF7E4FE0028F9D1012149
:1005300007484C38FFF7D2FE012105484C38FFF739
:1005400076FF11B000BD000000100140080002401D
:100550004C24014088010020164800781649087094
:1005600016481449097850F821006421B0FBF1F0D5
:100570000A21B0FBF1F201FB12000F4948700F484D
:100580000C49097850F821000A21B0FBF1F0B0FBCA
:10059000F1F201FB12000849887008480549097802
:1005A00050F821000A21B0FBF1F201FB12000249D0
:1005B000C8707047DD0100208C010020E0010020A0
:1005C00021B1026842F00102026004E002684FF6C5
:1005D000FE731A400260704701684FF6FE721140C8
:1005E00001600021016041608160C1604B49884227
:1005F00008D14A490839496841F00F01474A083A89
:1006000051608AE045491431884208D1434908398C
:10061000496841F0F001414A083A51607DE03F49A4
:100620002831884208D13D490839496841F4706150
:100630003A4A083A516070E038493C31884208D162
:1006400036490839496841F47041344A083A5160E2
:1006500063E032495031884208D13049083949684D
:1006600041F470212D4A083A516056E02B4964311B
:10067000884208D129490839496841F47001274A5C
:10068000083A516049E025497831884208D1234928
:100690000839496841F07061204A083A51603CE0ED
:1006A0001F49884206D1011F096841F00F01021F4E
:1006B000116032E01A491431884208D11849091FE3
:1006C000096841F0F001164A121F116025E0144933
:1006D0002831884208D11249091F096841F4706124
:1006E0000F4A121F116018E00D493C31884208D1B1
:1006F0000B49091F096841F47041094A121F116032
:100700000BE007495031884207D10549091F0968A4
:1007100041F47021024A121F116070470800024024
:100720000804024010B50022026847F6F0739A43AD
:100730000C6A8B6823430C6923434C6923438C69FF
:100740002343CC6923434C6A23438C6A23431A43D3
:100750000260CB6843600B6883604B68C36010BD68
:1007600008B50121482000F0D1F94FF47050ADF8E0
:10077000000002208DF8020010208DF80300694669
:100780000A4800F017F8FF20ADF800006946084855
:1007900000F010F84FF40040ADF8000003208DF891
:1007A00002006946014800F005F808BD000C014050
:1007B000001801402DE9F0410246002500260020E6
:1007C00000230024002791F803C00CF00F0591F8D6
:1007D00003C00CF0100CBCF1000F03D091F802C064
:1007E0004CEA050591F800C0BCF1000F31D0146847
:1007F00000202BE04FF0010C0CFA00F3B1F800C020
:100800000CEA03069E4220D183004FF00F0C0CFA35
:1008100003F7BC4305FA03FC4CEA040491F803C057
:10082000BCF1280F06D14FF0010C0CFA00FCC2F805
:1008300014C00AE091F803C0BCF1480F05D14FF095
:10084000010C0CFA00FCC2F810C0401C0828D1D3DF
:100850001460B1F800C0BCF1FF0F34DD5468002013
:100860002EE000F1080C4FF0010808FA0CF3B1F883
:1008700000C00CEA03069E4221D183004FF00F0C0A
:100880000CFA03F7BC4305FA03FC4CEA040491F8A4
:1008900003C0BCF1280F05D100F1080C08FA0CF8D0
:1008A000C2F8148091F803C0BCF1480F07D100F1E1
:1008B000080C4FF0010808FA0CF8C2F81080401C30
:1008C0000828CED35460BDE8F0810246002093682A
:1008D0000B400BB1012000E00020704741617047E0
:1008E00001617047C160704708B50121202000F008
:1008F0000DF943F24800ADF8000003208DF8020026
:1009000048208DF8030069460148FFF753FF08BDF2
:100910000014014070B5002100230F22C47804B3F5
:10092000154C246804F4E064C4F5E064210AC1F1C4
:100930000403CA40447804FA03F184781440214344
:1009400009010E4C0678A155047804F01F05012416
:10095000AC4005786D11AD0005F1E025C5F800410A
:1009600009E0047804F01F050124AC40044D06782A
:10097000761145F8264070BD0CED00E000E400E083
:1009800080E100E008B519208DF8000000208DF806
:10099000010001208DF802008DF803006846FFF782
:1009A000B9FF08BD2DE9FC5F4FF0000BDA4600BF30
:1009B0004748406846490968A0EB010ABAF10A0FA6
:1009C00004DDFA2043490870BDE8FC9F0AF10A00E3
:1009D000002803DA00203F490870F5E73E48006828
:1009E00050443D4908603D480068AAEB000B3B4875
:1009F00000683B4908603948C0F800A0344988685D
:100A000000F0C4FE06460F46504600F0A8FE8046A1
:100A100032463B4600F00AFF04460D462C49C868A2
:100A200000F0B4FE06460F462B48006800F097FE23
:100A300032463B46CDE9000100F0F8FE80462246F2
:100A40002B4600F053FC04460D462149086900F08E
:100A50009DFE06460F46584600F081FE804632460F
:100A60003B4600F0E3FE22462B46CDE9000100F0B4
:100A70003DFC04460D46002213462046294600F060
:100A8000D3FF07D20022174B2046294600F0E2FC94
:100A900004460D460022144B2046294600F0C4FFB0
:100AA00003D2FA200B49087010E0002213462046BA
:100AB000294600F07FFE03D200200649087005E0B9
:100AC0002046294600F01EFE0249087000BF7BE761
:100AD000E0010020280200202C0200203402002027
:100AE000300200200000244000406F4029B1064A37
:100AF00052690243044B5A6104E0034A526982433B
:100B0000014B5A61704700000010024029B1064AAB
:100B100092690243044B9A6104E0034A926982435A
:100B2000014B9A61704700000010024010B500F0C0
:100B300001F810BD0CB5002001900090334800680A
:100B400040F480303149086000BF3048006800F44C
:100B5000003000900198401C0190009818B901984D
:100B6000B0F5A06FF1D12948006800F4003010B151
:100B70000120009001E0002000900098012843D15E
:100B80002348006840F010002149086008460068CA
:100B900020F0030008600846006840F0020008608A
:100BA0001A48406819494860084640684860084645
:100BB000406840F4806048600846406820F47C103B
:100BC00048600846406840F4E810486008460068FD
:100BD00040F08070086000BF0C48006800F00070B2
:100BE0000028F9D00948406820F003000749486010
:100BF0000846406840F00200486000BF0348406873
:100C000000F00C000828F9D10CBD000000100240D3
:100C10000020024010B51348006840F0010011495F
:100C2000086008464068104908400E494860084678
:100C300000680E4908400B4908600846006820F427
:100C4000802008600846406820F4FE0048604FF4A9
:100C50001F008860FFF76AFF4FF0006004490860DA
:100C600010BD0000001002400000FFF8FFFFF6FE7C
:100C700008ED00E010B501217C4800F039F90028AA
:100C80007ED00121794800F015F9794800784FF4B9
:100C9000FA614843490090FBF1F084B22146734861
:100CA00000F096F973480078401C724908700846B5
:100CB0000078042801DB002008704FF470516E4862
:100CC000FFF70EFE6B480078022802D069480078D2
:100CD00068B96A48674A1278805C694A32F820002D
:100CE00080B240F080016748FFF7FCFD0AE06348EE
:100CF000604A1278805C624A32F8200081B2614812
:100D0000FFF7F0FD5B48007830B101280AD00228D7
:100D10000ED0032818D111E04FF480615648FFF738
:100D2000DDFD11E04FF400615348FFF7D7FD0BE004
:100D30004FF480515048FFF7D1FD05E04FF40051CA
:100D40004D48FFF7CBFD00BF00BF4F480068401C77
:100D50004D49086008460068642804D300200860F4
:100D600001204A4908704A480068401C4849086008
:100D700008460068B0F5C87F06D30020086000E090
:100D800044E001204349087040214348FFF79DFD9E
:100D900030B14FF480514048FFF797FD002861D1F2
:100DA0003E48007800285DD03D480068401C3C4922
:100DB00008603C2859D90020086040213648FFF7D8
:100DC00084FD20BB37483549097850F82100401C84
:100DD0003449324A127841F8220008462F490978EE
:100DE00050F8210030492D4A127851F822108842DB
:100DF00009D92E482949097850F821102948274A4D
:100E0000127840F822100120294908702DE04FF493
:100E100080512148FFF759FD18BB22481F49097826
:100E200050F8210021491D4A127851F822108842B9
:100E300009D11D481949097850F821001949174A64
:100E4000127841F8220017481449097850F8210017
:100E5000401E1449114A127841F822000120144919
:100E6000087002E000200E49086010BD002C01400F
:100E70002802002038020020000C01408C010020D4
:100E800090010020001801403C0200201C020020BC
:100E9000400200201D02002000140140DD0100205E
:100EA00044020020E0010020F4010020080200209C
:100EB0001E020020CA430282704721B1028842F01C
:100EC0000102028004E002884FF6FE731A4002809D
:100ED000704731B1B0F8442042F40042A0F84420F9
:100EE00005E0B0F84420C2F30E02A0F84420704799
:100EF00030B50246002000230024158A05EA0103CC
:100F0000958905EA010413B10CB1012000E000202D
:100F100030BD1AB183890B43838102E083898B43FF
:100F20008381704701894FF6F87211400181704743
:100F300070B5002400220023058C4FF6FF66354073
:100F40000584028C8388848B4FF68F752C404FF676
:100F5000FC752C400D882C434FF6FF552A400D8917
:100F60004FF6FF7606EA05252A434D8806EA052551
:100F70002A43154DA84202D0144DA8421DD14FF26C
:100F8000FF752A404D894FF6FF7606EA05252A436C
:100F90004FF6FF352A408D8806EA05252A434EF68E
:100FA000FF752B404DF6FF752B408D8906EA051520
:100FB0002B43CD8906EA05152B4383808483CD8896
:100FC0008587028470BD0000002C01400034014080
:100FD00081877047002202881D4B98420ED01D4B1E
:100FE00098420BD0B0F1804F08D01B4B984205D0EF
:100FF0001A4B984202D01A4B984204D14FF68F7385
:101000001A404B881A43174B984207D0164B984208
:1010100004D04FF6FF431A40CB881A4302808B88D6
:1010200083850B8803850A4B98420BD0094B984265
:1010300008D00E4B984205D00D4B984202D00D4B74
:10104000984201D10B7A0386012383827047000006
:10105000002C014000340140000400400008004022
:10106000000C00400010004000140040004001400F
:1010700000440140004801402DE9F84F2B4800682A
:1010800000F036FF81464FF08B41484600F04EFE9F
:1010900081462749484600F03FFF8146254948469A
:1010A00000F044FE2449009001F002F883465946BE
:1010B000484600F03BFE81462049484600F02CFFA0
:1010C000834600F0F5FE82465546612600240DE079
:1010D000301947081A4850F82700A84201D23E4666
:1010E00000E03C46301B012800D800E0F0E700BFDC
:1010F000A64203D104EB8400450013E0104850F8E9
:1011000024000F4951F82610401A0A21B0FBF1F8CB
:101110000B4850F82400401BB0FBF8F845460A2065
:1011200000FB04552846BDE8F88F00008801002028
:1011300000404E4500007A440000A04000002041DD
:101140000000002000B587B00121C802FFF7DEFCD7
:101150004FF4FA60ADF814004720ADF810000020FD
:10116000ADF81600ADF812008DF8180004A9134868
:10117000FFF730FF1148FFF7D5FE6020ADF8000003
:101180000420ADF804004FF47A70ADF8060000209A
:10119000ADF80A0069460948FFF7CAFE0122114668
:1011A0000648FFF7B6FE01210448FFF786FE01213D
:1011B0000248FFF78EFE07B000BD0000002C014082
:1011C00000250026FFF790FBFFF7CAFAFFF7BAFFEA
:1011D000FFF7D8FBFFF73CF974E03B4800780128A3
:1011E00004D1002038490870FFF7B6F93748007875
:1011F00001280CD1FFF740FF354908600020334932
:1012000008703448007810B901202F49087032481E
:101210000078012804D100202F490870FFF7C2FB95
:1012200008212E48FFF751FB012801D100251CE0C1
:10123000DDB9002400E0641C42F210708442FAD34D
:1012400008212648FFF741FB78B90125214800789D
:10125000401C2049087001201B4908701D48007877
:10126000042802DD00201B4908704FF400511B4880
:10127000FFF72BFB012801D1002607E036B9012634
:1012800001201149087000201249087014480068B4
:10129000401C1349086008460068FA2801D900205C
:1012A00008600F4800680F490978884205D34FF459
:1012B00000410D48FFF712FB04E04FF400410A48DB
:1012C000FFF70EFB89E700001E0200201C02002031
:1012D000E0010020DD0100201D020020001401407B
:1012E0002002002028020020000C014010B591EAE5
:1012F000030F48BF83F0004300F1D483841A71EBDD
:10130000030C05D2121943EB0C03001B61EB0C011B
:10131000DFF824E14FEA1154A4EB135C1EEA430FFB
:1013200018BF9EEA445F73D023EA0E03DCF1200E5F
:1013300021EA045143F4801332D322FA0CFE10EB5D
:101340000E0023FA0CFE41EB0E01CCF1200E03FA45
:101350000EFE10EB0E0051F10001B1F5801FCCF133
:10136000200E32D201EB045112FA0EF2BDE8104009
:1013700058BF7047401C38BF5FEA420218BF704731
:10138000002814BF20F0010041F100014FEA4103A1
:1013900013F5001F38BF7047A1F1C04100F03EBBFC
:1013A000012A43EB0302ACF1200CDCF11F0E32BF2B
:1013B0004FF0000E23FA0CF310EB030041EB045145
:1013C000B4EB115FD0D0A1EB045101F580114908B5
:1013D0005FEA300001EB04510ED350F1000038BF3A
:1013E00012FA0EFE08D1BDE81040C9E7401C38BF14
:1013F0005FEA4202CAD1C3E7BDE810404FEA4103A9
:1014000013F5001F38BF7047A1F1C04100F006BBC3
:101410009EEA445F08D011EA5E0FBDE8104004BFA9
:1014200001F0004100207047BDE8104070B500F0A9
:10143000A7FA00BF64FBBE3E0000E0FF491058BFA2
:10144000C1F140415B1058BFC3F140438B42EFF301
:10145000008070472DE9C04130B4DFF8A0C23CEAFB
:10146000111418BF3CEA131400F0EC8081EA030564
:101470001CEA111444EAD57418BF1CEA131500F0D5
:10148000C780A4EB05044FF0004545EAC12145EAB9
:10149000C32341EA505143EA525304F17F74994205
:1014A00004F500344FEAC0204FEAC22208BF904240
:1014B00000F09C804FEA13650FF24016765D4FEA0C
:1014C000134506FB05F7C7F1807706FB07F74FEAE0
:1014D000D737A7FB03687642C8F58038A7FB06CE4E
:1014E00038BFA8F1010807FB08E64FF0000EA6FB85
:1014F000028CE6FB03CEDCF1000CCEF1004E38BFCF
:10150000AEF1010EA6FB0C584FF000074FF000059E
:10151000E6FB0E87A1FB08C6A0FB07CE16EB0E0666
:1015200045F10005E1FB076515F1E04E7EBFA4F52E
:1015300080345FEA46066D4116F1800745F10005EB
:101540004FEA17274FEA066647EA0567A6F1DE4627
:10155000B6F1805F4FEA15251FD9384624F0010CFB
:1015600005EBC471BCF1FE6F01EB0C1102D8F0BCAD
:10157000BDE8008124425CBF01F5801E9EEAC47F65
:1015800002D4F0BCBDE80081244238D4F0BCA1F103
:10159000C041BDE8004100F041BA4FEAD22242EA20
:1015A00043524FEAD323A7FB02864FEAD02040EAFA
:1015B000415007FB03661EEA0E0F4FEAD12105FBDF
:1015C000026658BFA6EB0056B6EB00564FEA520E25
:1015D0004EEAC37E18EB0E0E56EB530EBDD518EB3C
:1015E00002085E417F1C55F10005B6E74FF48015F7
:1015F0004FF000074FF000064FF00008ADE7F0BCD9
:101600004FF0000001F1C04101F00041BDE8008150
:1016100011EA0C1F0CEA131500D00CE013EA0C1FA2
:1016200000F025804FF00000F0BC81EA030101F0DA
:101630000041BDE80081F0BCBDE8004181EA030142
:1016400000F0ECB9F0BCBDE8004170B500F098F9CD
:10165000097EFC3E00F007B881EA03014FF000006C
:1016600001F00041704781EA030100F0D7B9F0BCF6
:10167000BDE800414FF0000021497047FFFDFBF934
:10168000F7F5F4F2F0EEEDEBE9E8E6E4E3E1E0DEB5
:10169000DDDBDAD8D7D5D4D3D1D0CFCDCCCBCAC827
:1016A000C7C6C5C4C2C1C0BFBEBDBCBBBAB9B8B74E
:1016B000B6B5B4B3B2B1B0AFAEADACABAAA9A8A841
:1016C000A7A6A5A4A3A3A2A1A09F9F9E9D9C9C9B0F
:1016D0009A999998979796959594939392919190BA
:1016E0008F8F8E8E8D8C8C8B8B8A8989888887874B
:1016F0008685858484838382828181800000FF07C0
:101700000000F87F4FEA1153A3F58063D3F11E0365
:10171000A8BFD3F1200C08DB4FF0004242EAC122FF
:1017200052EA505232FA03F0704709420BD4102BA0
:10173000C4BF0020704703F5787CBCF1FF3F05D0A3
:101740004FF0FF3070474FF00000704770B500F069
:1017500017F900BF4992248000207047F0E710F08D
:10176000004248BF4042B0FA80F310FA03F10AD0B9
:10177000C3F11D0303F580634FEA415002EB0352AE
:1017800002EBD12170474FF000007047B0FA80F3B0
:1017900010FA03F10AD0C3F11D0303F580634FEA89
:1017A00041504FEA035202EBD12170474FF0000045
:1017B0007047000051EA030C17D41CF5801F58BF76
:1017C000BCF5801F00F10680994218BF704708BF22
:1017D0009042704707D711F5801F58BF13F5801F3F
:1017E00019D499427047894270471CF5801F08D56B
:1017F000BCF5801FF7D58B4218BF704708BF8242E7
:1018000070474FF4001C1CEB410F38BF1CEB430F1B
:1018100001D28B42704770B500F0B2F892244900B3
:101820004FF000514FF08053FFF708BEDFF848C17A
:1018300070B51CEA111E1EBF1CEA13159EEA0C0FA0
:1018400095EA0C0F00F06F8081EA030423EA4C1341
:101850004EEAD47E21EA4C1141F4801143F4801306
:10186000AE44A1FB024CA0FB0365AEF17F7E3619AE
:1018700055EB0C05A1FB034C4CF10003A0FB021C33
:1018800016EB0C06654153F10003094218BF46F000
:10189000010613F4007F0BD14FEA03314FEA053004
:1018A000340341EA155140EA16506FF003020AE092
:1018B0004FEAC3214FEAC520F40241EA555140EAFC
:1018C00056506FF0020202EB2E4201EB025585EA00
:1018D000CE710AD05FEA440C18BF24F0004450F1E6
:1018E000000041F1000120EAD47040F2FE7C624524
:1018F00000D270BDA84214BF4FF080444FF0404466
:10190000002E08BF0024BEF1806FA8BFA1F1C04126
:10191000BDE8704080F282804FF0000001F1C041CC
:1019200001F0004170479EEA0C0F0CEA131518BF36
:1019300095EA0C0F06D04FF0000081EA030E0EF07E
:10194000004170BD00F01CF88900013E00F007B8AE
:1019500000F009B84FEA430C5FEA5C5C08D081EA0A
:10196000030100F05BB84FEA410C5FEA5C5CF6D122
:101970004FF00000014970470000FF070000F87FAA
:101980000EF1020E2EF0030E5EF8046B364205D403
:10199000012A43EB030515F5001F12D8012841EB7E
:1019A000010C1CF5001F0CD80ED14FEAD17C15F5A7
:1019B000001F0CEB4C0C0CF1020C08BF4CEBD37C61
:1019C00004E04FF0080C01E04FEAD37C0CEB4C052F
:1019D00026FA05F606F00706B6F1040C06D20EEB61
:1019E000860CBDE870404CF0010C6047DFE80CF05D
:1019F000090B02024FF000414FF00000A1F5002159
:101A000070BD19461046012851EB010418BFD4F5EA
:101A1000001484BF002001F0004170BD0808A0F54B
:101A200000114FEA3101704753EA010C17D41CF53D
:101A3000801F58BFBCF5801F00F106808B4218BF85
:101A4000704708BF8242704707D713F5801F58BF01
:101A500011F5801F19D48B4270479B4270471CF5CB
:101A6000801F08D5BCF5801FF7D5994218BF704775
:101A700008BF904270474FF4001C1CEB430F38BF67
:101A80001CEB410F01D2994270470FB40CBC03BC50
:101A9000FFF7C1BE10B591EA030F48BF83F00043C2
:101AA0003FF52CAC841A71EB030C07D212198CF0A1
:101AB000004C43EB0C03001B61EB0C01DFF8A4E1CD
:101AC0004FEA1154A4EB135C1EEA430F18BF9EEAC1
:101AD000445F00F0B08023EA6E03524221EA0451D1
:101AE000C3EB6E0338BF5B1EDCF1200E25D322FA58
:101AF0000CFE10EB0E0043FA0CFE41EB0E01CCF194
:101B0000200E03FA0EFE10EB0E0051F10001CCF195
:101B1000200E29D412FA0EF201EB0451BDE8104058
:101B200058BF7047401C1CBFB2F1004F70470028DF
:101B30000CBF491C20F00100704712EB020E43EB72
:101B4000030218BF4FF0010E4EEA4202ACF1200C26
:101B5000DCF11E0E54D943FA0CFE10EB0E0051F1CD
:101B6000FF31CCF11E0ED5D50EF1010E12FA0EFE8C
:101B7000404141EB010101EB445C5FEA5C5C10D940
:101B800010EBDE7001EB045138BFBEF1004FBDE831
:101B9000104018BF704700280CBF491C20F00100FE
:101BA000704730D24FEAD42C11F5001124F40064B0
:101BB0001BD0B1FA81F20B3AA41AA41ED2F1200371
:101BC000914030FA03F31943904001EBCC71002CA3
:101BD00001EB0451BDE81040A8BF704701F1C041BE
:101BE0004FF0000001F000417047B0FA80F310FAA6
:101BF00003F100D110BDE41A173C4805C90AE4E717
:101C000001EB045110BD491001EB0451BDE8104037
:101C10004FEA300002E04FF0000170474A0008BF71
:101C20000042F8D0B2F5001F28BF704701F0004114
:101C30004FF0000070479EEA445F07D011EA5E0F44
:101C4000BDE8104004BF002100207047BDE81040EF
:101C500070B5FFF795FE00BF40DFF63E83F0004110
:101C6000104670470000E0FF90EA010F48BF81F086
:101C7000004100F12E82421A3CBF801A89184FEAB7
:101C8000D0524FF07F4C1CEA410FA2EBD15318BF4A
:101C90009CEA026F00F03B804FF0004C4CEA0020C1
:101CA0004CEA012121FA03FC10EB0C0C1ED202F1CC
:101CB000FF325FEA1C2040EBC25038BF70471CF077
:101CC0007F0F4FEA400C18BFBCF17F4F38BF704701
:101CD000C3F12003994008BF20F00100BCF17F4F01
:101CE00038BF7047A0F1C04000F0DDB94FEA3C00BA
:101CF000000A40EBC25028BF1CF0FF0F4FEA400C17
:101D0000E6D018BFBCF17F4F38BF7047EAE79CEAC6
:101D1000026F05D010EA5C0F08BF00F0004070476A
:101D200010B500F07AF900BF64FBBE3E4FF47F0CA3
:101D30001CEAD0121EBF1CEAD11392EA0C0F93EAE0
:101D40000C0F00F0858090EA010F48BF42F48072CA
:101D500040F4000C41F400002CF07F4120F07F4063
:101D600000B58142A2EB03020FF2081CACEB504E0F
:101D7000C0F100009EF800E04FEA4E0E00FB0EFCA2
:101D800038BF49004FEA2C1C02F5FA020CFB0EF397
:101D90004FEACE1E4FEA112C4FEAC1210EEB635ED3
:101DA00042EB22420EFB0CFC4FEA1C5300FB0311DA
:101DB0004FEA112C4FEA01310EFB0CFC4FEADC4CD0
:101DC00000FB0C11C14228BF09184CEB03335DF82E
:101DD00004EB10EB410143EBC250B2F57C0F38BF6E
:101DE000704729D512F0F00F1CBF00F1C04000F081
:101DF00000407047008182838485868788898B8C28
:101E00008D8E8F919293959697999A9C9D9FA0A263
:101E1000A3A5A7A8AAACAEB0B2B3B5B7B9BCBEC0B3
:101E2000C2C5C7C9CCCED1D4D7D9DCDFE2E6E9EC54
:101E3000F0F3F7FAFE0000004FEA400C0CF1807C52
:101E4000BCF17E4F28BF7047B0F1C04000F02BB905
:101E500090EA010F0CEAD11348BF42F48072624548
:101E600038BF634507D213F47F0F16D080EA010014
:101E700000F00040704710B500F0CFF8097EFC3E3E
:101E800000F005B880EA010000F00040704780EAE9
:101E9000010000F0004000F006B912F47F0F04BF0B
:101EA0000248704780EA010000F0FDB80000C07FE2
:101EB000C10DD1F19E0206DB4FEA002343F000433F
:101EC00023FA02F07047004207D54FEA4001B1F112
:101ED000FE4F02D24FF00000704710B500F09DF8A1
:101EE00049922480002070476FEA2000704700006C
:101EF000B0FA80F310FA03F2C3F19D030AD0D905BA
:101F000001EB1220530638BF704700F1010008BFF3
:101F100020F00100704700004FF47F0C1CEAD01243
:101F20001EBF1CEAD11392EA0C0F93EA0C0F00F0CB
:101F3000478090EA010F48BF42F480724FF0004C96
:101F40004CEA00204CEA012102EB0302A0FB011342
:101F5000A2F50002002918BF43F001035B0028BF6F
:101F60004FEA330342EB22425FEA132C4CEBC250A0
:101F70002EBFBCEB436FB2F57C0F70474FEA036C8A
:101F8000BCF1004F08BF20F00100B2F57C0F38BF54
:101F900070470BD582F0FF0212F5803FC8BF704733
:101FA00000F1C040D8BF00F00040704700F5000CC1
:101FB0005FEA4C0C48BF7047B0F1C04000F073B806
:101FC00090EA010F0CEAD11348BF42F480726245D7
:101FD00038BF634504D280EA010000F0004070473A
:101FE00010B500F01AF800BF8900013E00F007B8F4
:101FF00000F009B85FEA410C5FEA1C6C08D080EA87
:10200000010000F050B85FEA400C5FEA1C6CF6D1AA
:102010004FF00040A0F5800070470EF1020E2EF048
:10202000030E5EF8044B244204D44FEA4102B2F19D
:102030007F4F11D84FEA4003B3F17F4F0CD80ED138
:102040004FEAD07CB2F17F4F0CEB4C0C0CF1020C40
:1020500008BF4CEBD17C04E04FF0080C01E04FEAE4
:10206000D17C0CEB4C0324FA03F404F00704B4F124
:10207000040C06D20EEB840CBDE810404CF0010CB1
:102080006047DFE80CF0070802024FF00040A0F5BF
:10209000800010BD0846420018BFD2F1807288BF90
:1020A00000F0004010BDFF2141EAD050C00570474C
:1020B00080F0004090EA010F7FF5DDAD81F0004136
:1020C00000F007B890EA010F48BF81F000413FF5EA
:1020D000D2AD421A04D882F00042A0EB02001144B3
:1020E0004FEAD0524FF07F4C1CEA410FA2EBD15384
:1020F00018BF9CEA026F4AD04FF0004C4CEA002017
:102100004CEA012121FA03FCB0EB0C0C0FD412F0C5
:10211000FE0F36D05FEA4C001DD5001240EBC250D6
:1021200038BF70471CF03F0F18BF70470BE0A2F19B
:1021300001025FEA1C2040EBC25038BF70471CF020
:102140007F0F18BF7047C3F12003994014BF401E92
:1021500020F00100704780084FEA122308BF704743
:10216000B0FA80FCA2EB0C02CCF1280C60FA0CF067
:1021700093EA122F04BF00EBC25070474FEAC370BE
:102180007047130A5FEADC1008BF7047F6E79CEA65
:10219000026F04D010EA5C0F08BF0020704710B532
:1021A000FFF73BFF40DFF63E81F000407047000044
:1021B000D021000800000020480200006C01000847
:1021C0003C2300084802002060060000C801000807
:1021D00023716D23CA6823616423356023425C2325
:1021E000845823F854239C51236B4E23634B238044
:1021F000481A320423E54623E04423604223983FF3
:1022000023AF3C23C33923E736232A3423923123D7
:10221000242F1BE22C58222A23DA282310271B689C
:10222000253822232373221B1E210C221F23B51EB7
:10223000239B1D238F1C23901B1B9D1A14221923E3
:10224000D51823FE171A2E0423661623A5151BE99D
:1022500014A0190423861323DD121A3904239B11B9
:102260001A030423701023E10F1A570423D20E1A05
:1022700050041BD20D10190423DE0C1A670423F23C
:102280000B1A7D041A090423D80A1A9E041A5C0446
:102290001A16041BCC09E019041A340423E8081A9E
:1022A0009F041A57041A12041BD007D419041A5792
:1022B000041A1F0423EA061AB8041A89041A5C04D3
:1022C0001A32041A0A0423E4051ABF041A9B041ADA
:1022D00079041A57041A36041A150423F4041AD47C
:1022E000041AB4041A93041A73041A53041A320415
:1022F0001A120463F20336010203043F194F11322C
:102300005B324F3266326D327D197F11327F326F10
:102310003277327C3239325E327932713276F24043
:1023200023C201326E323219EF511B8A02981918FA
:0C2330006904411A5E08290B6904012CA5
:0400000508000131BD
:00000001FF
